:100000002EC5000049C5000047C5000045C50000D9
:1000100043C5000041C500003FC500003DC50000CC
:100020003BC5000039C500000C9433290C94FF290E
:100030000C94C22231C500002FC500002DC5000060
:100040002BC5000029C5000027C5000025C50000FC
:1000500023C500000C9439231FC500001DC50000F6
:100060001BC5000019C5000017C5000015C500001C
:1000700013C5000011C500000FC500000DC500002C
:100080000BC5000009C5000007C5000005C500003C
:1000900003C5000001C50000FFC40000FDC400004E
:1000A000FBC40000F9C40000F7C4000035002B00B9
:1000B0002900E100255200001E00140004001D006C
:1000C000285229001F001A0016001B00E0002C0017
:1000D0002000080007000600E200E30021001500F0
:1000E000090019002352E200220017000A0005004F
:1000F00000002B00AE00AB000000AC000000E100EF
:10010000A800A9000000AA000000E50023001C00D0
:100110000B00110000005800240018000D00100012
:100120002452E00025000C000E00360050012C0087
:10013000260012000F0037005101E30027001300D2
:100140003300380052012900B0002A003400283161
:100150004F01000035002B002900E100255200006E
:100160001E00140004001D00285229001F001A0060
:1001700016001B00E3002C0020000800070006000A
:10018000E200E00021001500090019002352E200FE
:10019000220017000A00050000002B00490065003E
:1001A000000039000000E1004C0552000000510041
:1001B0000000E50023001C000B00110000002800D7
:1001C000240018000D0010002452E30025000C004C
:1001D0000E003600500A2C00260012000F003700D7
:1001E000510AE0002700130033003800520A2900AA
:1001F0004C002A00340028314F0A000035002B0043
:100200002900E100255200000000140004001D0038
:100210002852290000001A0016001B00E000E00030
:100220000000080007000600E2002C000000150096
:10023000090019002352E200000017000A0005001F
:1002400000002B00AE00AB000000AC000000E1009D
:10025000A800A9000000AA000000E50023001C007F
:100260000B00110000002800240018000D001000F1
:100270002452E30025000C000E00360050002C0034
:10028000260012000F0037005100E0002700130085
:100290003300380052002900E0002A003400281200
:1002A0004F000000000000000000000001000000FE
:1002B00000001E002F022F000100000000001F00A0
:1002C0003002300000000000000020004A0026023A
:1002D00000000000000021004D0027020100000086
:1002E00000002200000000000000000000000000EC
:1002F00000000000000000000000000000000000FE
:1003000000000000000023000000000000000000CA
:10031000000024002D003102010000000000250033
:100320002E00000000000000000026002D0200004A
:1003300000000000000027002E0231000000000035
:1003400000000000000000000000000000000000AD
:1003500000000000010000001E001E02000000005E
:10036000010000001F001F0200000000000000004C
:1003700020002002000000000000000021002102F7
:10038000000000000100000022000000000000004A
:10039000000000000000000000000000000000005D
:1003A000000000000000000000000000230000002A
:1003B00050002F08000000002400220251002B03EF
:1003C000010000002500230252002B010000000064
:1003D000260024024F0030080000000027002502FC
:1003E000E2001A0800000000000000000000000009
:1003F00000000000E000000000000000010000001C
:10040000210A3A003E00420001000000200A3B00A1
:100410003F00430000000000220A3C00400044006E
:100420000000000000003D00410045000100000008
:1004300000000000000000000000000000000000BC
:1004400000000000000000000000000000000000AC
:1004500000000000000054005500000000000000F3
:1004600000005F005C005900010000000000600017
:100470005D005A0062000000000061005E005B0049
:10048000620000000000560057000000000000005D
:10049000000000000000000000000000000000005C
:1004A000000000000100000000000000000000004B
:1004B000010000000000000000000000000000003B
:1004C000000000000000000000000000000000002C
:1004D000000000000100000000000000000000001B
:1004E000000000000000000000000000000000000C
:1004F00000000000000000000000000000000000FC
:1005000000000000000000000000000000000000EB
:1005100001000000000000000000000000000000DA
:1005200000000000000000000000000000000000CB
:1005300000000000000000000000000000000000BB
:1005400000000000000000000000000001000000AA
:10055000000000000000000001000000000000009A
:10056000000000000000000000000000000000008B
:10057000000000000000000000000000010000007A
:10058000000000000000000000000000000000006B
:10059000000000000000000000000000000000005B
:1005A000000000000000000000000000000000004B
:1005B000000000000000000001000000000000003A
:1005C000000000000000000000000000000000002B
:1005D000000000000000000000000000000000001B
:1005E000000000000000000000000000000000000B
:1005F0000000000000000000237824784052000032
:100600000100000025782678415200002078000083
:1006100027782878425200002278000029782A782A
:10062000007C0000217800000000000000000000B5
:1006300000000000000000000000000000000000BA
:100640000000D3000000D100000000000000DB002B
:10065000CF00D200000000000000DA00CE00D4007D
:10066000000000000000D900CD00D500000000000F
:100670000000DC00D0000000000000000000DF00EF
:10068000DE00DD00000000000000000000000000AF
:10069000000000001E0F0500047F3F1F6432146439
:1006A0003214783C1E1E140A052223252628292AE6
:1006B0002C2D2F3032333536383A3B3D3E404243C5
:1006C0004547494A4C4E5051535557595A5C5E6004
:1006D00062646668696B6D6F71737577797B7D7F16
:1006E00081838587898A8C8E90929496989A9C9E15
:1006F0009FA1A3A5A7A8AAACAEAFB1B3B4B6B8B931
:10070000BBBCBEBFC1C2C3C5C6C7C9CACBCCCDCE98
:10071000D0D1D2D2D3D4D5D6D7D7D8D9D9DADADB7B
:10072000DBDBDCDCDCDCDCDDDDDDDDDCDCDCDCDC07
:10073000DBDBDBDADAD9D9D8D7D7D6D5D4D3D2D246
:10074000D1D0CECDCCCBCAC9C7C6C5C3C2C1BFBE2E
:10075000BCBBB9B8B6B4B3B1AFAEACAAA8A7A5A399
:10076000A19F9E9C9A98969492908E8C8A89878558
:1007700083817F7D7B79777573716F6D6B69686637
:100780006462605E5C5A5957555351504E4C4A4909
:1007900047454342403E3D3B3A3836353332302FB1
:1007A0002D2C2A292826252322FFAA7F5540000127
:1007B0000101010101010101020202020202020221
:1007C00002030303030303030304040404040404F3
:1007D00005050505050606060606070707070708B7
:1007E000080808090909090A0A0A0B0B0B0C0C0C6A
:1007F0000D0D0D0E0E0E0F0F0F1010111111121204
:1008000013131414151516161717181819191A1A80
:100810001B1B1C1D1D1E1E1F2020212222232424E1
:10082000252626272829292A2B2C2D2D2E2F30311D
:100830003232333435363738393A3B3C3D3E3F402F
:100840004142434445464748494A4C4D4E4F50511A
:100850005354555658595A5B5D5E5F6162646566D4
:1008600068696B6C6D6F7072737577787A7B7D7E5B
:100870008082838587888A8C8E8F91939596989AAB
:100880009C9EA0A2A3A5A7A9ABADAFB1B3B5B7BAC3
:10089000BCBEC0C2C4C6C9CBCDCFD1D4D6D8DBDD97
:1008A000DFE2E4E7E9EBEEF0F3F5F8FAFDFF22030F
:1008B0004500720067006F0044006F007800200060
:1008C00045005A0020005300680069006E00650072
:1008D000000028035A005300410020005400650026
:1008E000630068006E006F006C006F0067007900A5
:1008F00020004C0061006200730000000403090442
:1009000009025400030100A0FA09040000010301D8
:10091000010009211101000122440007058103089B
:100920000001090401000103010200092111010075
:10093000012247000705820310000109040200019B
:1009400003000000092111010001226D0007058349
:1009500003200001120100020000000897327549CF
:1009600001000102000105010980A10185031901AF
:100970002AB700150126B700950175108100C00542
:100980000C0901A101850419012AA002150126A064
:1009900002950175108100C005010906A1018506B7
:1009A000050719E029E71500250195087501810261
:1009B0000507190029EF1500250195F07501810241
:1009C0000508190129059505750191029501750321
:1009D0009101C005010902A1010901A10005091940
:1009E00001290815002501950875018102050109F5
:1009F0003009311581257F95027508810609381562
:100A000081257F950175088106050C0A380215813C
:100A1000257F950175088106C0C005010906A10161
:100A2000050719E029E715002501950875018102E0
:100A30009501750881010507190029FF150026FF9A
:100A4000009506750881000508190129051500257E
:100A500001950575019102950175039101C011245D
:100A60001FBECFEFDAE0DEBFCDBF11E0A0E0B1E006
:100A7000EAE0FBE502C005900D92A03EB107D9F770
:100A800024E0A0EEB1E001C01D92A531B207E1F76C
:100A90000E94A7150C94262DB3CA8098889A819835
:100AA000899A84988C9A85988D9A86988E9A879838
:100AB0008F9A0895209828982198299822982A9802
:100AC00023982B9852985A9853985B983E9846983A
:100AD000089588D18093040110920501EBDFDDCFEA
:100AE000A1E0B0E0E6E7F5E00C94282C8091040149
:100AF00090910501892B81F08091E2018F5F8093B5
:100B0000E201811109C06ED190E08093040110923E
:100B10000501892B09F408D184EAE82E83E0F82E38
:100B2000C12CD12CA12C8C2D895FB82E8091040171
:100B300090910501892BB9F481E00C2C01C0880F3C
:100B40000A94EAF78095898304E610E021E030E01A
:100B5000CE010196AC0162E180E40E9413258093EE
:100B60000401909305018B2D8B3009F45CC008F0D3
:100B70004CC0893009F451C08A3009F451C0883022
:100B800009F448C0209A28988091040190910501A9
:100B9000892B09F04EC0198224E630E041E050E094
:100BA000CE010196BC0180E40E94A124809304013F
:100BB00090930501898180958F73F7019081891742
:100BC00019F08083AA24A3949FB18FB1869586954E
:100BD0008C739370892B9FE38927F701978189177D
:100BE00019F08783AA24A39465DF8FEFC81AD80A67
:100BF0008FEFE81AF80A87E0C816D10409F093CFFE
:100C00008A2D2196EAE00C94442C8C3079F4539A86
:100C10005B98BACF219A2998B7CF229A2A98B4CF55
:100C2000239A2B98B1CF529A5A98AECF3E9A4698B3
:100C3000ABCF80E0C1CFD6D08093040110920501E4
:100C400039DF2BDFE2EBF3E08EE011928A95E9F7D2
:100C5000089524E630E04CE350E064E573E084E876
:100C60000E9459240C943F1C880F991F880F991FCC
:100C70008C5A9C4FFC016183408322830C941F1C7F
:100C8000FF920F931F93CF93DF93EC01162F042F46
:100C9000F22E0E94341C2F2D402F612FCE01E4DF55
:100CA000CDB7DEB7E5E00C94492CFF920F931F936C
:100CB000CF93DF93182F062FF42EC0E0D0E02F2D16
:100CC000402F612FCE01DCDF2196CF30D105B9F75F
:100CD000CDB7DEB7E5E00C94492C259A2D9A0895FE
:100CE000269A2E9A0895279A2F9A089556985E98D4
:100CF000089525982D98089526982E980895279858
:100D00002F980895F3DFF5DFF7DFF9CF90E09093A8
:100D100089008093880090938B0080938A00909341
:100D20008D0080938C000895EDDF8FEFEFDFD5DF2E
:100D30008FEF90E722E0815090402040E1F700C023
:100D40000000CEDF8FEF90E722E0815090402040FE
:100D5000E1F700C00000C7DF8FEF90E722E081508D
:100D600090402040E1F700C00000C3DF8FEF90E724
:100D700022E0815090402040E1F700C00000BCDF3D
:100D80008FEF90E722E0815090402040E1F700C0D3
:100D90000000B5DFB7CF89EA8093800089E08093B7
:100DA000810024982C983F98479A54985C9A5598BB
:100DB0005D9A6E98769A0E942E11609390037093BC
:100DC0009103809392039093930367702FEF629F38
:100DD000C0011124959587959595879597DFA4DF98
:100DE0000C94F814A2E0B0E0E8EFF6E00C942E2C9E
:100DF00080E280930401109205018091E30181114A
:100E00000EC00E94E62381E08093E3018FEF93ED13
:100E100020E3815090402040E1F700C000009FE3B4
:100E200019829A8304E610E022E030E0CE010196B8
:100E3000AC0160E080E40E9413258093040190934C
:100E40000501009769F422E030E0CE010196AC0183
:100E50006CE080E40E9413258093040190930501C7
:100E60002296E4E00C944A2C109290031092910385
:100E7000109292031092930384E080618093900318
:100E800064E170E080E090E00E9430110C94F61074
:100E90000C94F91408958930C8F46E30B8F44630D3
:100EA000A8F450E096E0699F400D511D112494E58F
:100EB000899F400D511D1124FA01EE0FFF1FE455CB
:100EC000FF4F85919591282F822F089521E090E082
:100ED000FBCFE1CF089581E0089581E00895FBCF35
:100EE000089581E0089581E00895FDCF0895089563
:100EF0000895FDCF089508950895A6E0B0E0E3E8D1
:100F0000F7E00C942F2C49835A839E833091E9019A
:100F100089819A81311117C03E81311589F02115DF
:100F200079F076D5182F682F89819A8150D56981FB
:100F30007A81812F0E9406132696E3E00C944B2CB5
:100F400057D5182FF4CF64D569817A81F3CFFC018E
:100F5000262F408151816281738184819581CDCF1B
:100F6000CF93DF93EC0161E0F2DFBE01B6DF8115C4
:100F700029F061E0CE01EBDFBE01B1DFDF91CF915F
:100F800008950F931F93CF93DF93EC0160E0DFDFB1
:100F90008C01BE01ADDFBE01C801ABDFDF91CF9197
:100FA0001F910F9108950F931F93CF93DF93EC013F
:100FB00061E0CDDF8C018D8181110E941C1CBE017E
:100FC000C8018FDF811106C080E0DF91CF911F91B2
:100FD0000F910895BE01C80188DF8115A9F3BE01F4
:100FE000C8010E941720811579F3BE01C8010E9433
:100FF0008E1C811549F3BE01C8010E94651C811534
:1010000019F3BE01C8010E94BD158115E9F2BE01A8
:10101000C8010E9409148115B9F2BE01C8010E94DD
:101020001B14811589F2BE01C8010E943514CDCF71
:1010300021E030E002C0220F331F8A95E2F7C90198
:1010400001C4CF93C82F81E090E00C2E02C0880F1E
:10105000991F0A94E2F70E9424118C2FE9DFCF91A7
:10106000089581E0089581E00895FBCF0895CF931E
:10107000C82F97D38C2FF7DF8C2FF7DF8FEF94E3F8
:101080002CE0815090402040E1F700C00000CF915B
:10109000089581E0ECDF0C945D2380E0E8DF0C94A0
:1010A0008E2329DF0E9468221BD00C94B91A1AD013
:1010B0000E946E1B21DF0C946B2281E0089508953D
:1010C000CF93DF93D82FF9DFC82F811511F08D2F23
:1010D000F6DF8C2FDF91CF9108950895F1CF089519
:1010E00080E0FCCF0E946520F9CFCF930E9465205D
:1010F000C82F8091E4018C1771F0C093E4010E9425
:101100002D236093E5017093E6018093E7019093AE
:10111000E8018C2FE3DFCF910895ADE0B0E0E3E983
:10112000F8E00C94302C488759876A877B878C8736
:101130009D8791117BD71F8286E0FE0138969E0124
:101140002F5F3F4FD90101900D928A95E1F78D8174
:1011500081110CC029813A814B815C816D817E8136
:101160008F81AFD62D96E2E00C944C2CCE010196E7
:10117000F7DE8111EFCFF6CFFC012481213019F485
:101180008081918178C40895611521F00E94EA1D43
:101190000C949F1E0E942A1EFBCFCF93C82F81154F
:1011A000B9F08238B9F40E94742081FD11C089E33E
:1011B0000E949C21C6D78FEF97EE23E0815090408C
:1011C0002040E1F700C0000089E30E94B321B9D7B5
:1011D000CF910895833899F40E94742080FDF8CF50
:1011E00083E50E949C21ADD78FEF91EE24E08150E2
:1011F00090402040E1F700C0000083E5E6CF84384E
:1012000099F40E94742082FDE3CF87E40E949C2120
:1012100098D78FEF91EE24E0815090402040E1F785
:1012200000C0000087E4D1CF8450813A68F48C2F4D
:101230000E941621811521F08C2F0E94B32181D7A5
:101240008C2F0E949C21C3CF8C2F805E883048F465
:1012500081E0C1FD84E0C0FD880FC2FD8295C7D644
:10126000B6CF8C2F855A833030F48C2F8452990B53
:101270000E94A220ADCFEC2FE85AEB3150F4F0E001
:10128000EE0FFF1FE65CFE4F808191810E94C92016
:101290009FCF8C2F8D5C833108F09ACF61E08C2F2B
:1012A00073DF96CF811509F44EC0823861F40E9435
:1012B000742081FF48C089E30E949C2142D789E3C2
:1012C0000E94B3213EC7833851F40E94742080FFEE
:1012D0003AC083E50E949C2134D783E5F1CF84385E
:1012E00051F40E94742082FF2EC087E40E949C214A
:1012F00028D787E4E5CF982F9450913A08F3982F98
:10130000905E983050F4982F81E091FD84E090FD3C
:10131000880F92FD829571D6D5CF982F955A93302C
:1013200020F480E090E00C94A220982F985A9B31F2
:1013300020F480E090E00C94C920982F9D5C9331BC
:1013400010F460E021CF08951F93CF93DF93182FFF
:10135000EB0123DF209731F4812FA4DFDF91CF91C0
:101360001F9108958FE99FE00197F1F700C00000F9
:101370002197F0CF60E570E0893311F060E070E014
:10138000E3CF811511F033D6DCC60895811511F035
:1013900034D6D7C60895A0E0B0E0E1EDF9E00C94B2
:1013A0002A2C6C01D62FC72FFC01158106810295CE
:1013B0000F7012D6E82E8115E9F0E12E1115D1F04B
:1013C0008C2F807F803461F08D2F805E8830E0F03C
:1013D0008C2F807E803221F4D230B0F00115A1F044
:1013E0008091A30382FF10C082E0CFD6F5D591E0B3
:1013F0008927E82EEC2FE295EF70C03C78F5F0E0FD
:10140000E85DF24D0C940A2CE12CF4CF0C2F0F70F8
:10141000C03110F00295007F111581F0011549F0DF
:101420008D2F805E883010F0D11105C0802FDFD560
:1014300088D68D2F40C0802FEBD5FACF8D2F32DF8D
:10144000011561F08D2F805E883010F0D11103C03E
:10145000802FD3D502C0802FE1D573D6E11409F4D3
:10146000B2C0B6D580FDAFC0F6011582ABD51AD299
:10147000C60168D1A7D524D2A6C08C2F8F70F82EB4
:10148000C07FC03219F0F29480EFF822D13038F0EA
:1014900079F1111509F437C00115C9F0CACF80914F
:1014A000A30382FD10C0111541F0F11419F08F2D26
:1014B0009ED547D680E071DED1CF80E0F3DEF11417
:1014C00069F28F2DC6CF111551F0013018F48F2D10
:1014D00058DFC4CF09F0C2CF8F2DBCD5BFCF0111CB
:1014E000BDCF8F2D53DF8F2DC0D58F2DA5D5B6CF76
:1014F000111521F0023008F0B1CFE9CF0111AECFC4
:101500008F2D44DFABCF0115D9F3D93349F48FEFD9
:1015100097EE23E0815090402040E1F700C00000AA
:101520008D2FC0DE9BCF8C2F869586958370813062
:1015300060F009F093CF8D2F9C2F9370111102C092
:1015400080E090E00E94C92089CF8D2F9C2F93705E
:10155000111102C080E090E00E94A2207FCF612F95
:101560008D2F12DE7BCF8C2F8370C1F5111128C017
:101570004D2F429546954770440F440F2D2F2F70E5
:1015800030E0042E02C0220F331F0A94E2F780E0FD
:1015900090E0D4FF09C08FE090E002C0880F991F4F
:1015A0004A95E2F780959095C695C695C370822BB3
:1015B000932BC23079F0C33079F0C13049F04BD170
:1015C0000E9465208BDDCDB7DEB7E8E00C94462C99
:1015D0003BD1F6CF47D1F4CF35D1F2CF111559F128
:1015E000C0FFEECF4D2F429546954770440F440FF4
:1015F0002D2F2F7030E0042E02C0220F331F0A94CB
:10160000E2F780E090E0D4FF09C08FE090E002C0F4
:10161000880F991F4A95E2F780959095C695C695D3
:10162000C370822B932BC23061F0C33061F0C130A4
:1016300031F06BD1C5CF823008F4C2CFD3CF5ED1A9
:10164000BFCF6AD1BDCF1BD1BBCFCF70111529F051
:101650008C2F28D18D2F95DEB3CF8D2F97DE8C2F39
:101660002FD1AECFD23F39F168F4D03FC1F0D13F96
:1016700089F0111509F43FC0011509F439C08D2F07
:101680008CDD9ECFD33FE9F0D43F99F78091A3033F
:1016900082FD1FC08C2F8F71111511F310C0111511
:1016A00031F001118DCF8C2F8F711AD189CF02307B
:1016B00008F086CFF8CF8C2F8F711111D1CFF2D0D7
:1016C0007FCF111521F08C2F8F71E3D079CFDED031
:1016D00077CF111529F063E08C2F8F713FD570CF34
:1016E00081E053D5023008F46BCF82E04ED568CF4D
:1016F0008C2F8F71E4CF011571F0D93349F48FEF3E
:1017000097EE23E0815090402040E1F700C00000B8
:101710008D2FC8DD55CF8C2F8F71A2CF0F931F93C4
:10172000CF93DF93EC01688179818D81ADD18C01FC
:10173000FAD087D0B801CE012EDEDF91CF911F9174
:101740000F910895CF93DF93EC018C81811581F087
:10175000CE0129DC81110FC03FD4811549F08D8164
:10176000811531F08091A30382FF02C082E00DD584
:10177000DF91CF910895CE01D1DFCE0102DCF8CF09
:1017800080E090E00E94A22080E090E00E94C920CA
:101790004DD4D7D40E94B81E0C949F1E0E94CA211B
:1017A000EFCF33D4FBCF282F92959F70963099F0CE
:1017B00060F4925F9F70923030F4203FB1F038F4C3
:1017C00081E0283E38F080E008959A5FF3CF81E011
:1017D000243FC9F7089591E0813F09F090E081E04E
:1017E000283E08F080E0892B089581E00895FC01EF
:1017F0002481211521F0808191813DD1D4CF80E0D9
:101800000895A6E0B0E0E7E0FCE00C94302C2696CA
:10181000E2E00C944C2CA7E0B0E0E1E1FCE00C9499
:10182000302C2796E2E00C944C2C0895FECF0895BE
:10183000FDCF0895FADFFCDF809318029093190220
:1018400008950895F7CF0895209118023091190254
:10185000822B932BEFCF2091180230911902822313
:101860009323E8CF20911802309119028227932701
:10187000E1CFDBCF0895FDCF0895D7CF0895FDDFE9
:10188000FADF8093160290931702089580E090E0AB
:10189000F6CF21E030E002C0220F331F8A95E2F735
:1018A000C901EDCF21E030E002C0220F331F8A953D
:1018B000E2F78091160290911702822B932BDFCFD3
:1018C00021E030E002C0220F331F8A95E2F7209515
:1018D0003095809116029091170282239323CFCFE7
:1018E00021E030E002C0220F331F8A95E2F7809199
:1018F00016029091170282279327C1CF20911602DA
:1019000030911702822B932BBACF2091160230917F
:10191000170282239323B3CF20911602309117022E
:1019200082279327ACCF0895CF93C1E061FDC4E037
:1019300060FDCC0F62FDC29593E0769567959A9510
:10194000E1F7660F771F660F771F460F571FFA01E3
:1019500040E050E090E06191DF019C01042E02C064
:10196000369527950A94E2F72695220B26272C23F5
:1019700026272E934F5F5F4F4430510561F7CF917B
:101980000895A82FA77023E0969587952A95E1F7EB
:10199000880F991F880F991F680F791FFB0140E07E
:1019A00050E080E0219130E00A2E02C03695279564
:1019B0000A94E2F72170042E01C0220F0A94EAF77C
:1019C000822B4F5F5F4F4430510561F70895262FFA
:1019D0009E3068F4863058F4682F70E086E0989F57
:1019E000600D711D11244AEE51E0822F9DCF0895A4
:1019F000292F9E3058F4863048F490E06AEE71E06A
:101A000036E0239F800D911D1124BBCF80E0089507
:101A1000CF92DF92FF920F931F93CF93DF936C01CE
:101A200000911602109117028091180290911902EC
:101A3000082B192BCFE0D0E081E090E00C2E02C003
:101A4000880F991F0A94E2F780239123892B61F470
:101A5000219790F7F12C8F2DDF91CF911F910F914E
:101A6000FF90DF90CF900895FC2EB6018C2FD9D532
:101A7000019771F3F0CFCF93DF93EC01C9DFBE0183
:101A8000D0D5DF91CF9108951F93CF93DF93EB01D2
:101A90009091E901911531F0CB01EDDFDF91CF910C
:101AA0001F910895811551F0CB01B2DF182F682FD7
:101AB000CE018DDFBE01812FB4D5F0CFCB0198DFF1
:101AC000182FF8CF0F931F9300911A0280911B02D9
:101AD000801303C01F910F91089587E0089FF001C4
:101AE0001124E45EFD4F2081318142815381648164
:101AF0007581868190DE0F5F1F4F0770E7CF2091C1
:101B00005402309155024091560250915702609113
:101B100058027091590280915A027DCE80915A02EA
:101B2000803170F480915902811551F0E0911A02D0
:101B300020911B0230915502409154022E1301C096
:101B40000895BF0187E0E89FF0011124DF01A45E42
:101B5000BD4F14968C911497811549F111968C9173
:101B60001197831324C08C91841321C015968C91F6
:101B7000159781111CC012968D919D91A0915602CE
:101B8000B09157028A1B9B0B883C910580F4809191
:101B90005A028F70806180935A02EE5DFD4F808102
:101BA0008F708061808384E592E0CCDD8BCF6F5FA6
:101BB0007F4FFB01E770C2CFE0911A0290911B02A8
:101BC000E91302C080E008959F0157E0E59FF0010E
:101BD0001124E45EFD4F5181561306C05081581305
:101BE00003C05581541305C02F5F3F4FF901E770C3
:101BF000E7CF81E008958F929F92AF92BF92DF92DC
:101C0000EF92FF920F931F93CF93DF93CDB7DEB781
:101C10002D970FB6F894DEBF0FBECDBF8C0186E0C6
:101C2000F801DE01189601900D928A95E1F7F8010E
:101C3000F580848194E5892E92E0992E9091580246
:101C4000911117C0811509F4EFC0F11409F42EC1E8
:101C5000C801CDDD811509F429C187E0F801D4015F
:101C600001900D928A95E1F7C40186DA57DF47DFCC
:101C7000DBC0E080A280B380D09059022091560250
:101C800030915702A501421B530BD11409F4CFC068
:101C9000483C510508F09EC0811509F4C5C09091DB
:101CA0005502918080915A02803108F065C09912E6
:101CB00026C0909154029E1122C0F11057C08F701F
:101CC000806180935A021BDF84E592E03BDD8091C6
:101CD0005A02F8018683F12C8F2D2D960FB6F894B9
:101CE000DEBF0FBECDBFDF91CF911F910F91FF904F
:101CF000EF90DF90BF90AF909F908F900895F1107C
:101D000035C040E0692D8E2D57DF40E0692D8E2DC6
:101D100053DFF82E8111DFCF88859985ACDE292F1E
:101D200022952F70903450F49F70223078F09115E6
:101D300091F0F8019681903170F4CECF2A5F2F7028
:101D4000223070F0C801FEDCFD2CC6CF911519F0D1
:101D5000811509F4C1CF805E883008F4BDCFF2CF81
:101D6000803F08F4B9CF815F8330F7CF80915A026A
:101D7000816080935A02AFCF991207C090915402AC
:101D80009E1103C0F11409F473C0C80130DD811540
:101D900009F48CC0F11409F489C080915A02803290
:101DA00080F0209154023091550229833A83AB820E
:101DB000BC82909158029D831E828F83CE01019632
:101DC000C1DC87E0F801A4E5B2E001900D928A95AC
:101DD000E1F74CCF90915A02903188F448855985AB
:101DE0006A857B858C859D850CDD84E592E0AADC87
:101DF000F40187E011928A95E9F781DE6CCF8115B5
:101E000099F02091550281812813BFCF809154020F
:101E10008E11BBCFF110B9CF9683C80193DCF401CA
:101E200087E011928A95E9F7FF24F39455CF483C57
:101E3000510508F03EC08115B9F3F114B9F1909144
:101E400055028181981329C0809154028E1125C0BA
:101E500080915A0280FD18C08031B0F08683807F67
:101E6000803F39F08681982F907F905F8F70892B0B
:101E70008683C80167DC87E0F801A4E5B2E0019041
:101E80000D928A95E1F7F3CE87E0F801A4E5B2E080
:101E900001900D928A95E1F7C7CFC801A8DC8111A6
:101EA00090CF80915A02816080935A02C8014ADC27
:101EB000BBCF488559856A857B858C859D85A1DC4E
:101EC00097CFAEE0B0E0E7E6FFE00C942F2C288738
:101ED00039874A875B876C877D878E87CE01089616
:101EE0008ADE6C85811599F0611539F02885398570
:101EF0004A855B857D858E858EDC80911A02909166
:101F00001B0289133DC02E96E3E00C944B2C87E016
:101F10009E01285F3F4FF90127503109D9010190F7
:101F20000D928A95E1F7611541F3A0911B028A2F6A
:101F300090E08395877090E0AC0120911A022417FD
:101F4000150691F097E09A9FD0011124A45EBD4F31
:101F50009E012F5F3F4FF90101900D929A95E1F795
:101F600040931B02AFDDC9CF1CDC10921B02109204
:101F70001A02E4E5F2E087E011928A95E9F7BDCF15
:101F800017E0189FC0011124845E9D4F34DE811537
:101F900009F4B9CFE0911A021E9FF0011124E45E0A
:101FA000FD4F208131814281538164817581868119
:101FB00032DC80911A0290911B0201968770809307
:101FC0001A029BCF80918302869586958695089507
:101FD000809183028770089590918302977081E0C9
:101FE000911101C080E008958091AF020895909111
:101FF000AF02982B9093AF0208958095982F80910F
:10200000AF0289238093AF0208951092AF02089522
:102010009091AE02982B9093AE0208958095982FE0
:102020008091AE0289238093AE0208951092AE0291
:1020300008950895FECF089590918402292F2823B2
:1020400029F08095892380938402F4CF0895089520
:10205000FECF089590918502292F2823281721F07B
:10206000982B90938502F4CF089590918502292FA3
:10207000282329F08095892380938502E9CF08954C
:1020800080918502811521F01092850280E0E0CFD9
:102090000895CF93C091AF028091AE02C82B80917A
:1020A0008502811529F0C82B0E94F0208111E8DFFC
:1020B0008C2FCF910895CF93DF93C0910801D091D9
:1020C0000901E7DF8883C0910801D091090148E048
:1020D00050E06BE772E0CE010E94B72C892B59F0DB
:1020E00088E0FE01ABE7B2E001900D928A95E1F73E
:1020F000CE010E947620DF91CF910895CF93DF9398
:10210000C0910601D0910701C4DF8983C091060107
:10211000D091070140E250E06BE572E0CE010E94F1
:10212000B72C892B59F080E2FE01ABE5B2E00190BB
:102130000D928A95E1F7CE010E948320DF91CF9125
:1021400008950E945E20811529F08091A20387FFE7
:1021500001C0D4CFB0CF0895FECF08959091A303CE
:1021600092FF0EC0982F990F990F990F962B90936D
:10217000830298DB80918302869586958695ECCFC5
:1021800091CB1092830280E0E7CF909183028095FB
:10219000892380938302282F277059F4891749F0E7
:1021A0009091A30392FF05C086958695869588DB5E
:1021B000E8CF08959091A30392FB222720F92817D6
:1021C00049F080FB92F99093A30382EA93E040D018
:1021D00082E0DBCF08958091A303002482FF039463
:1021E000802DE8CF81E0E6CF80E0E4CF80E090E092
:1021F000BC01F3C3A3E0B0E0E0E0F1E10C94302CCB
:102200004ED359D31B82CE0103966CD381E090E06C
:10221000809318021092190271D3198284E18A8383
:10222000CE0101967CD3A3D50E9434072396E2E029
:102230000C944C2CDFCF089544C3089531C3089506
:1022400046C3089555C3089559C308955CC30895BE
:1022500066C308956BC308959DC30895B4C30895DC
:10226000B6C30895C0C30895A6E0B0E0EAE3F1E183
:102270000C942E2C0E9421238C018091B00290910D
:10228000B1028017910779F019821A820E942123E6
:10229000BC0149815A8180E090E00E948D08009342
:1022A000B0021093B1022696E4E00C944A2C0E94EE
:1022B0002D236093B6027093B7028093B802909377
:1022C000B9026093B2027093B3028093B402909308
:1022D000B502089508950895FDCF08950895FEDF8D
:1022E000FBCF0895FECF08950895FEDFFBCF87E072
:1022F00094E13ED4F0DFF3CF81E0089581E00895CA
:10230000FBCF0895089508950895FCDFFCDFFCCF0E
:1023100095DF811101C08EDF8AEB92E091DF82EAC6
:1023200093E094DF8FDF8EDA80911602909117028E
:10233000A2CA0E94182365D3EBDF0E945C200E9492
:102340006D080E94421BD1CFA6E0B0E0EAEAF1E1BD
:102350000C94272CD3DF81110DC086DF0E945D20F5
:102360000E941D1C0E94D91E0E9475082696EBE053
:102370000C94432C57D384E9A82E83E0B82E750122
:1023800010E0F7010081812F35D31F5F1E3009F463
:1023900045C09FEFE91AF90A081799F38091BA022C
:1023A00081FD2ED3ADDF982E10E0812F23D3F82EA0
:1023B000F50181915F01F81661F18F25D82E00E0BB
:1023C000EE24E3948D2D8E21F1F0CC24C3948F2D37
:1023D0008E2109F4C12C911489F0602F812F0E9465
:1023E0008E2281110BC009831A830E942123BC0114
:1023F00049815A8181E09C2D0E948D084C2D602FCF
:10240000812F0E94A2220F5FEE0C0630D9F6F50153
:10241000F2921F5F1E3049F64ADFA0CF0813BECFED
:102420009CCF0F931F93CF93DF93FDD0EC01D23558
:1024300008F050C0D03508F0C8C0C03ED10530F516
:10244000CD3CD10508F09DC0C83AD10578F4C53A15
:10245000D10508F093C0C130D105B1F1CE01049788
:10246000813A910588F1C0E0D0E02EC0CE01885AB3
:1024700091094B97C0F7C85AD0E0CC0FDD1FC05967
:10248000DE4F0990D881C02DD4641EC0D034A8F48A
:10249000D03208F0ADC0C83ED105B0F0CE019150A9
:1024A0009F3108F78D2F62D1082F8C2F90E0BBD081
:1024B000D02FDF71C82FD92B07C08C2F90E0B3D05D
:1024C000DF70C82FD92BD06ACE01DF91CF911F9139
:1024D0000F910895C03882E5D807B8F5C03682E577
:1024E000D80708F056C0C03482E5D807C8F4C03217
:1024F00082E5D80708F047C08C2F8695869520E2A4
:10250000829FC0011124C37021E030E002C0220F7D
:10251000331FCA95E2F7E901C82BD92BDD68D4CF68
:102520008C2F86958695877020E2829FC0011124AA
:10253000C37021E030E002C0220F331FCA95E2F7DA
:10254000E901C82BD92BDC68BFCFC03C82E5D80796
:1025500050F48C2F8F71C03AD24580F5982F84EFBC
:10256000906AEC01B1CFCE01805C9245809708F073
:102570007ACFDC2FDF71C0EFD06AA6CFA497D064EA
:10258000A3CFD065A1CF8C2F8F71D82FC1EFD06A88
:102590009BCF8C2F86958695877020E2829FC00105
:1025A0001124C37021E030E002C0220F331FCA950E
:1025B000E2F7E901C82BD92BDA6886CFD7D0982F5C
:1025C00080E09F71EC01D0627FCF8C2F8F71CED0D5
:1025D00053E0CC0FDD1F5A95E1F7DF70282F84FF01
:1025E00004C090E1899F90011124C22FD0696CCF63
:1025F0008D2F8F71BBD0082F8C2F90E014D0302FEF
:102600003F71282F392B3062E9015ECF462F7E3093
:1026100028F4663018F4672F0C94690780E090E086
:102620000895F4DFFECE803E9105D1F1C8F48133E8
:10263000910509F481C048F48932910509F471C00B
:102640008A32910509F47FC0089589339105E1F03C
:1026500082389105C9F08533910509F45DC008956C
:10266000843E9105D1F148F4823E910531F1833EDB
:10267000910541F181EE90E00895863E9105C1F10A
:10268000873E9105F1F108952091A203237009F08E
:1026900064C02091A30323FF14C089E290E0089551
:1026A0002091A20320FD45C03091A30330FF09C053
:1026B00024FD24C083EE90E008952091A20322FD22
:1026C000F7CF08952091A20322FD44C03091A303C7
:1026D00030FD43C024FFF5CF11C02091A30321FF9B
:1026E000F0CF8091A20384FD09C087EE90E00895A9
:1026F0002091A20323FFE5CF24FFF7CF80E090E0F5
:1027000008952091A20323FD2BC03091A30331FF34
:10271000E1CF84EE90E008952091A20325FFD1CF70
:10272000BCCF2091A20325FD1EC02091A30323FF4F
:10273000C8CF89E390E008952091A20326FFC1CF7E
:102740008AE290E008952091A20326FFBACF81E3A8
:1027500090E0089582EE90E0089580EE90E0089574
:1027600086EE90E0089585E390E008959091A203AD
:1027700092FF10C041E0282F2471243009F040E07E
:1027800031E0282F2871283009F030E0431711F08C
:102790002CE0822793FF10C041E0282F24712431C0
:1027A00009F040E031E0282F2871283109F030E0AD
:1027B000431711F02CE082273091A30330FF10C0A3
:1027C00051E0282F2171213009F050E041E0282FFD
:1027D0002871283009F040E0541711F029E08227D1
:1027E00031FF10C041E0282F2171213109F040E074
:1027F00031E0282F2871283109F030E0431711F01B
:1028000029E0822794FF02C083FD877E089580E03F
:102810000895CF939C01205E3245C1E020323105FE
:1028200038F4FB01C581C11103C08F710E942108DA
:102830008C2FCF9108959C01FB018581811599F022
:102840002B359CE7390769F02C359CE7390721F0D7
:102850002A353C4721F00895BEDC80E00895C2DCB3
:10286000FCCFC2DCFACF81E008959C01FB01858199
:10287000811599F021309CE7390761F023309CE7FE
:10288000390739F021153C4749F40E94490880E096
:102890000895D2DC0E944D08FACF81E00895089592
:1028A00080E090E00E94D12C9C0181E0233E3E4FCD
:1028B00009F080E0089563EE7EEF80E090E00C94F4
:1028C000F02C6FEF7FEF80E090E00C94F02CCF9332
:1028D000DF93EC0182E090E00E94C42C8883DF91BA
:1028E000CF910895FC01608182E090E00C94D62C99
:1028F00083E090E00E94C42C90E00895682F83E06C
:1029000090E00C94D62CCF93DF93EC0184E090E020
:102910000E94D12C88839983DF91CF910895FC0187
:102920006081718184E090E00C94F02C8F929F92F2
:10293000AF92BF92CF92DF92EF92FF920F93CF931D
:10294000DF93EC0188E090E00E94CC2C4B015C010D
:10295000688399828A83BB821C821D821E821F82A9
:1029600083E290E00E94C42C9401A50188823983FF
:10297000AA825B838C831D821E821F82DF91CF918E
:102980000F91FF90EF90DF90CF90BF90AF909F900E
:102990008F9008950F93CF93DF93EC014881598175
:1029A0006A817B8188E090E00E94E82C6C81262F70
:1029B00060E070E0CB01622F83E20E94D62CDF91B1
:1029C000CF910F9108958FE090E00C94CC2CAB0147
:1029D000BC018FE090E00C94E82CAB01BC0183E1DA
:1029E00090E00C94E82C682F8EE090E00C94D62CAC
:1029F00008950895E82FF0E0EE54FC4F808108958B
:102A000008950E946905E4EAF3E08EE011928A9548
:102A1000E9F7E2EBF3E08EE011928A95E9F713D043
:102A20000C94CB06CF9384EA93E00E947005482F64
:102A300062EB73E084EA93E007D0C82F0E94480756
:102A40008C2FCF9108950895EF92FF920F931F93CB
:102A5000CF93DF93182F092FF62EE72EC42F109255
:102A6000BD02D091BF02D11509F46BC00E94212391
:102A70004091BB025091BC029C01241B350B8093FA
:102A8000BB029093BC0284179507C9F0C90191114C
:102A90008FEFE0ECF2E020E030E09191911539F019
:102AA000DF011197891708F448C01C923D2F92E06E
:102AB000EE3CF90791F73093BE022093BF02C1119B
:102AC0000DC0CD2F8091BE02811581F1C11106C0CC
:102AD0000E9421238093BB029093BC021092BE02FD
:102AE0008091BD029091BF02EF2DFE2DC12FD02FFE
:102AF00000EC12E0AF01425F5F4F3EE1619129912E
:102B0000621759F0D8016C91611107C03C93CF0155
:102B10000197DC012C9381E091E00F5F1F4FE417D8
:102B2000F50761F79093BF028093BD028091BD02CB
:102B3000CDB7DEB7E6E00C94482C981B9C932D2F64
:102B4000B6CF411509F4BECFC3CFFECB08950E9486
:102B5000BB220E948A26CBDB0E94A226EADB0E94CF
:102B6000AB260E94AE26F1DF0E94C426CEDBF9CF51
:102B70008093E0019093E1010895CF93DF93EC01FE
:102B8000FB018581811104C081E0DF91CF9108951F
:102B90002BDA8272FE01E052F847EB30F105A0F724
:102BA000EC5CF24D0C940A2C65D580E0EECF8115DB
:102BB00021F054D5FACF8115E1F344D5F6CF811534
:102BC00021F017D2F2CF8115E1F309D2EECF8115B2
:102BD00021F029D2EACF8115E1F318D2E6CF811591
:102BE00021F03BD2E2CF8115E1F32AD2DECF81156D
:102BF00021F0E8D0DACF8115E1F3D5D0D6CFA0E02F
:102C0000B0E0E5E0F6E10C94292C062FB72EE82F72
:102C100071110EC0411521F0F0E0E255F84FE4913A
:102C20006E2F7E2F8E2FCDB7DEB7E9E00C94452CAA
:102C3000411521F0F0E0E255F84FE49186E0089F5D
:102C4000E00111242FEF30E0CE01B9010E94C12B29
:102C5000AB01C801880F991FF5E5F49FB001F59FFE
:102C6000700D1124861B682F660F680FC9018B1920
:102C70009109E89FD001E99FB00D11248B2FB69EDA
:102C800060011124CD2CD12C89010C191D0968017A
:102C9000E09F7001E19FF00C11244330510551F188
:102CA0008901061B1109B09E6001B19ED00C112450
:102CB000CD2CD12C2C193D09E29F8001E39F100DF2
:102CC0001124712FCC3FD34050F441305105B1F065
:102CD0004230510561F47E2FEB2F812F08C0443024
:102CE000510579F04630510511F07B2F8F2D6E2F55
:102CF000E82F98CF7F2D8E2FEB2FF9CF7E2FEF2D42
:102D0000F6CF8E2FE12F7B2FF2CF41E078CF0895C1
:102D1000FCCF089590910D01291B922FE091340171
:102D2000F0913501242F462F682F892F90E00995C7
:102D30000895CF93DF93762FE901682F842FE8DF82
:102D4000962F672F9E01482F892FE4DFDF91CF91C7
:102D500008958091C003843028F483708460809348
:102D6000C00308958C3AE8F38370886AF8CF85E051
:102D70008093C0031092C1038FEF8093C2038093AE
:102D8000C3031092C40380EC93E066CA9091C4031D
:102D9000933018F49F5F9093C403811519F080EC71
:102DA00093E05ACA089581E0F1CF9091C403911540
:102DB00019F091509093C403811519F080EC93E0C1
:102DC0004BCA089581E0F1CF0F931F93CF93809169
:102DD000C00380FF09C0E0913801F09139010995E5
:102DE000CF911F910F910895C0910F0180913401EF
:102DF000909135018C0180911001C81760F7809186
:102E00000D019C2F981B20E040E060E0892F90E0AE
:102E1000F8010995CF5FEFCFEF92FF920F931F93C9
:102E2000CF93DF93D82F162F042F8091C00380FFFC
:102E30000CC0C0910F0180913401909135017C014B
:102E400080911001C81730F0BFDFCDB7DEB7E6E0E4
:102E50000C94482C80910D019C2F981B202F412F02
:102E60006D2F892F90E0F7010995CF5FE9CF762F7D
:102E70009091C00390FF08C0682F842F49DF962FE0
:102E8000672F482F892FC8CF0895CF93DF93EC0188
:102E9000EC81F0E0E755F94F4491E0ECF3E062811A
:102EA0008181E5DF8C818F5F8C83DF91CF910895E5
:102EB000CF93DF93EC01E0ECF3E0438162818C81FE
:102EC000D6DF8C818F5F8C83DF91CF910895CF9374
:102ED000DF93EC012091C3039C81892F817090FDC9
:102EE000822F692F627091FD622F492F447092FDED
:102EF000422F92DF8C81019687708C83DF91CF9176
:102F00000895A0E0B0E0E7E8F7E10C942B2CD82F6F
:102F1000E62EF42ED22E9091C00390FF21C0092FEF
:102F200006950695E02FF0E0EA55FE4F80818093EC
:102F300024039C7F9430C9F46D2F7E2D842FE8DE0E
:102F4000962F672F482F892F67DFD093C103E09218
:102F5000C203F092C303D11419F080EC93E07CD942
:102F6000CDB7DEB7E7E00C94472C823019F4F0902F
:102F7000C303EBCF863019F4D091C103E6CF89307B
:102F8000D9F3893111F70951E02FE695F0E0E755C3
:102F9000F84FC49110E060911101161710F014DF82
:102FA000D4CF1C9FC001112470E00E94C12B862F3A
:102FB0008D0F00FF02C08D2F861B20910F01210F66
:102FC0003327331F4F2D6E2DB4DE1F5FE4CFE0ECAF
:102FD000F3E0282F438162818181845F92CF81E079
:102FE000F6CFE0ECF3E0282F4381628181818C50A1
:102FF00088CF81E0F6CFE0ECF3E0628121E1620F5F
:1030000008F46FEF282F438181817BCF81E0F3CFDC
:10301000E0ECF3E0628121E1621B08F460E0282F1C
:10302000438181816ECF81E0F3CFE0ECF3E0438117
:103030002CE0420F08F44FEF282F6281818161CF8D
:1030400081E0F3CFE0ECF3E043812CE0421B08F495
:1030500040E0282F6281818154CF81E0F3CF20E0CE
:1030600050CF0F931F93CF938C01C0E0609111015B
:10307000C61768F0A9DEF8018481928190FF1DC017
:103080008F5FF8018483CF911F910F910895209154
:103090000F012C0F3327331F70E08FEF90E00E9459
:1030A000D52BF80184814091C303C69F800D112464
:1030B0006091C2033EDECF5FD9CF8150E2CFAF92A5
:1030C000BF92DF92EF92FF920F931F93CF93DF9304
:1030D000FC018281D1E080FDDFEFC0E0809134010E
:1030E000909135015C0180911101C817B8F06CDE38
:1030F0008091CF02D13009F050C0811102C080917F
:10310000110181508093CF02DF91CF911F910F91D8
:10311000FF90EF90DF90BF90AF90089580910F01E6
:1031200090910D01891B8C0F20E040E060E090E061
:10313000F501099504E010E0D12CEC2EF12C8091E2
:10314000CF028D0D80311CF16FE00E94B42B892FCE
:10315000082E001C00088E150F0499F480910F01B1
:103160009701280F311D4091C3030403A0011124CE
:1031700055954795559547956091C2038091C10338
:10318000D8DDDD0E01501040D1F6CF5FACCF87FF08
:10319000DFCF90911101890FDBCF90E00196609114
:1031A000110170E00E94D52BADCF0F931F93CF93E9
:1031B000C0910F0180913401909135018C01809173
:1031C0001001C81750F1C0E0809134019091350191
:1031D0008C0160911101C61768F1F6DD80910B0139
:1031E0009091CE02980F9093CE0220910C01280F5F
:1031F00020930C01121654F4209111012150330B2D
:10320000092E001C0008921703061CF0819580937C
:103210000B01CF911F910F91089580910D019C2F6B
:10322000981B20E040E060E0892F90E0F8010995CC
:10323000CF5FC5CFEC2FF0E070E0CF010E94D52B1F
:1032400020910F01820F9091CE02092E001C0008E0
:10325000E917F0059CF090910C01092E001C000864
:103260009E170F065CF0282F30E04091C303609159
:10327000C2038091C1035DDDCF5FABCF90910D01A3
:10328000891B20E040E060E090E0F8010995F4CF70
:10329000A0E0B0E0EEE4F9E10C94282CEC01FC8114
:1032A0002F2F30E0D9010E94992B9B01AC010E9485
:1032B000162C7B018C0180E290E08F1B9109FC01B0
:1032C000A5E59701A8010E94162C5B016C019F01E6
:1032D000DF010E94932B9B010E94102C9B01AC01EB
:1032E0002E0D3F1D401F511FB501C6010E94E82B46
:1032F000022F30E00A3220F5A901440F551F420F7A
:10330000531F55954795142F1095F12C85E5801B7B
:10331000E82E80911101F81600F156DD9C8181E0C4
:10332000911519F0903219F48FEF80930A01809172
:103330000A01890F8C83CDB7DEB7EAE00C94442CE8
:1033400085E590E0821B930BAC01440F551F480F9D
:10335000591FBAF64F5F5F4FD4CF8E2DF1FC802FEF
:1033600020910F012F0D3327331F412F6091C2038E
:10337000E0DCF394CECF0F931F93CF93DF938C01B8
:10338000C0E0D0E090911101C917D1055CF01CDDBF
:10339000F8018481019681708483DF91CF911F9120
:1033A0000F910895F801448180910F019E01280F2B
:1033B000311D6091C2038091C1039695C917D10553
:1033C0003CF4411539F04091C303B3DC2196DACFC8
:1033D0004115C9F340E0F9CFA0E0B0E0E2EFF9E138
:1033E0000C94242CFC018281882E948081E08483BB
:1033F000E9EAF6E0A490E8E2F7E0E491C091C303C3
:10340000C695C158D0E0CC0FDD1FED2EF12CB12CAC
:1034100005E01FEFEA198E2F90E03C018091110129
:10342000B81630F0D1DCCDB7DEB7EEE00C94402C0E
:10343000CB2CD12C882D833058F40B9DF001112416
:10344000E053FD4F8091C10380838091C20381834B
:1034500091101BC00C9DF0010D9DF00D1124E05347
:10346000FD4F1382128280910F019601280F311DAA
:103470000C9DF0010D9DF00D1124E053FD4F428194
:103480006181808156DCB394C9CF0C9DE0010D9D14
:10349000D00D1124C053DD4F8B818115E1F0815097
:1034A0008B83189FC00111246C8170E00E94C12B96
:1034B00070E0FB01E755F94F84918A19189FC0010C
:1034C0001124B3010E94C12B8091C303689FB001F6
:1034D00011247A83C8CF0E949E2C6FEF70E00E9467
:1034E000D52B8E159F050CF0BECF882D833090F024
:1034F0000E949E2C6FEF70E00E94D52B88830E9463
:103500009E2C2091C2032695622F70E00E94D52B3D
:10351000280F29830C9DF0010D9DF00D1124E0531F
:10352000FD4F12828091C303893C58F088EC0C9DBA
:10353000F0010D9DF00D1124E053FD4F8483838332
:1035400092CF8431A0F784E1F2CF8091C0038E7FC7
:103550008093C00380EC93E00E942C11109225030D
:1035600033CC8091C0038E7F8093C00310922503DB
:103570002BCC1092250380912203811109C081E098
:10358000809322038091C003817080932103E9CF4F
:1035900008956091C0036695669570E04BE050E039
:1035A00082E191E00E94AA2C892B19F481E080939A
:1035B00025030E94212380931B0390931C030895ED
:1035C0009091C00390FF2CC0811559F18B3258F5B2
:1035D0008F73880F880F9091C0039370892B80930D
:1035E000C003611521F080EC93E00E942C116091E2
:1035F000C0036695669570E04BE050E082E191E093
:103600000E94AA2C892B89F01092250381E08093D7
:103610001E034091C3036091C2038091C1031FCD7B
:10362000089581E0D6CF8AE2D4CFB3DFEFCF682F01
:103630009091C00396959695892F8F5F8B3208F0F5
:1036400081E0BECF81E0F3CF682F9091C0039695C3
:103650009695892F815009F48AE2B2CF81E0F4CFA8
:1036600061E0AECF8091C00381608093C0038695F6
:103670008695F6CF8091C00380FF01C066CFF2CF60
:1036800060E09ECF8091230381111FC080EC93E006
:103690000E942A118091C003843028F468DB80ECFA
:1036A00093E00E942A1155DB10922503E09132012C
:1036B000F091330109958091C00380FF03C0869586
:1036C0008695DEDF81E08093230308958091C00317
:1036D00081608093C00386958695D2CF1092220395
:1036E000809121038111F2DF54CF0F931F93CF9369
:1036F000DF9380912503811509F43FC08091240355
:10370000E091C003E695E695E81BE0931D03853143
:1037100009F489C008F042C0893009F47AC090F5F4
:10372000823009F464C0863009F46AC0C0EDD7E085
:1037300007E816E180911E03811559F010921E03CF
:1037400080D780931B0390931C0310921F03109249
:10375000200377D720911B0330911C03821B930B0E
:103760008F3F9F4750F42C0F3D1F20931B03309336
:103770001C038BE193E0F8010995DF91CF911F9134
:103780000F9108958F3091F6E695F0E0E456F94FE9
:10379000E491CE2FD0E00FE518E1CCCFC4EFD1E01B
:1037A0000BEB19E1843231F288F4C8E2D0E008E48E
:1037B00019E1883109F4BECF833209F0B7CFE7E9C8
:1037C000F6E0C591D59107E617E1B4CF853209F04F
:1037D000ADCF8E2F63E00E94A82BE92FF0E0EC56CE
:1037E000F94FE491CE2FD0E00CEE19E1A3CFF0E039
:1037F000EB55F94FE491CE2FD0E005E417E19ACFD5
:10380000F0E0EE55F94FE491CE2FD0E008E517E156
:1038100091CFE695F0E0E156F94FE491CE2FD0E05C
:1038200001E318E187CFF0E0E756F94FE491CE2F9E
:10383000D0E005ED18E17ECF089557CF0895FC0143
:10384000828120813181982F281708F4922F39170F
:1038500008F4932F9383391B3183291B2083891B01
:1038600082830895579A0895880F991F880F991F8A
:1038700088539C4FFC01618340832283E0CF3BB19E
:103880003F772BB120684FB7F89488EC93E0FC01A8
:103890000196508168E02BB9000000C057FF3BB98A
:1038A000550F000000C000C000C03BB900C06A95C1
:1038B00091F754E08430950751F74FBF8FE594E0BE
:1038C0000197F1F700C000000895CF93DF93EB015B
:1038D00086319C4709F50E94F40F9D81911599F05E
:1038E0008A7A91E0811101C090E0909326038115BE
:1038F00041F085E321D50E94A11080E0DF91CF91B6
:10390000089589E2F7CF80912603811519F085E3A8
:103910002AD5F1CF89E2FCCF81E0F0CFCF93DF93BE
:10392000EC01FB018581811509F4CBC09E01305764
:103930002332310508F0ABC082EA93E00E942611E1
:10394000FE01E150F047E232F10520F4E15CF24D76
:103950000C940A2C8091A20381608093A20390C0F2
:103960008091A30388608093A3038AC08091A203FF
:103970008260F3CF8091A2038460EFCF8091A20395
:103980008860EBCF8091A3038160EDCF8091A3038A
:103990008260E9CF8091A2038061DFCF8091A20392
:1039A0008062DBCF8091A2038064D7CF0E94D10BCD
:1039B0008091A2038068D1CF8091A2038C60CDCF8B
:1039C0008091A3038360CFCF8091A2038E7FC5CF68
:1039D0008091A303877FC7CF8091A2038D7FBDCF46
:1039E0008091A2038B7FB9CF8091A203877FB5CF4F
:1039F0008091A3038E7FB7CF8091A3038D7FB3CF38
:103A00008091A2038F7EA9CF8091A2038F7DA5CF45
:103A10008091A2038F7BA1CF0E94D10B8091A20342
:103A20008F779BCF8091A203837F97CF8091A30351
:103A30008C7F99CF9091A203892F8B7F92FF846016
:103A4000877F92FF886089CF8091A303982F9095FC
:103A500090FB80F990FB81F986CF9091A203892F8A
:103A60008F7B96FF806479CF0E94D10B9091A20347
:103A7000892F97FB87F9805870CF81E00E9432111F
:103A800082EA93E00E9428110E94D10B80E0DF912E
:103A9000CF91089580E0F2CF9091A203892F8F7E7D
:103AA00094FF80615ACF9091A203892F8E7F90FF5F
:103AB000816053CF9091A303892F877F93FF886004
:103AC00052CF81E0E4CF382F25EB3203C00111241F
:103AD00097FF04C080589109892F089580589F4FFF
:103AE000FBCF80912E0380FF0DC06091220170E01A
:103AF000660F771F6038710588F56115710581F1D2
:103B0000862F089581FF07C06091220184E0689F9D
:103B1000B0011124EFCF82FF04C06091220188E040
:103B2000F6CF90912D039115B9F06091210180910C
:103B30002201961728F098E0899FB0011124DACF6E
:103B4000899FC001112423E0880F991F2A95E1F76E
:103B500070E00E94D52BCECF68E0D2CF8FE70895DA
:103B600081E0089580912E0380FF0CC060911E01BA
:103B700070E075956795759567956115710541F1CB
:103B8000862F089581FF06C060911E0170E0759533
:103B90006795F3CF60911E0182FD0BC090912C03BD
:103BA0009115A1F060911D0180911E01961738F0CA
:103BB000682F70E06038710500F38FE70895899FE2
:103BC000C001112470E00E94D52BF4CF61E0D8CF62
:103BD00081E00895E82FED5CE33198F5F0E0EF59CE
:103BE000F24D0C940A2C7DDF81958093310308956A
:103BF00078DFFBCF76DF819580933003089571DF06
:103C0000FBCFB0DF809332030895ACDF8195FACF0C
:103C1000A9DF8195809333030895A4DFFBCF815DF5
:103C2000990B21E001C0220F8A95EAF780912F03BA
:103C3000822B80932F03089580912E0381608093BF
:103C40002E03089580912E038260F9CF80912E0378
:103C50008460F5CF409130038D3C59F4809131035D
:103C600087FF0DC010923103411559F410922D03B6
:103C700008C08E3C81F48091310318169CF34115E5
:103C800081F08091320390913303892B09F056C063
:103C900010922C0308958F3C41F447FFF0CF10920F
:103CA0003003809131038115E0CF803D19F4141663
:103CB000B4F3E5CF90913203893D29F41916FCF64F
:103CC00010923203DCCF8A3D19F497FFD8CFF8CF9A
:103CD000909133038B3D29F497FFD1CF109233039A
:103CE000CECF8C3D19F41916CCF3C9CF982F915D26
:103CF000983078F4815D990B21E001C0220F8A95FC
:103D0000EAF7822F809590912F03892380932F03C8
:103D1000B6CF8D3D31F480912E038E7F80932E039C
:103D2000AECF8E3D21F480912E038D7FF7CF8F3D56
:103D300009F0A5CF80912E038B7FF0CF089581D419
:103D40009C019091300380913103982B21F02093B6
:103D50002A0330932B039091320380913303982BE5
:103D600021F020932803309329038FE293E0DDC1F3
:103D7000EFE2F3E085E011928A95E9F710922D03C6
:103D800010922C0310922E030895FC018181811161
:103D90000EC0828181110BC08381811108C091E026
:103DA0008481811101C090E0892F8170089581E0A4
:103DB000FCCFA5E0B0E0EFEDFEE10C942D2C85E00A
:103DC000EFE2F3E09E012F5F3F4FD90101900D928A
:103DD0008A95E1F71092300310923103109232036A
:103DE000109233038A819B81892B022FF32E811538
:103DF00081F080912A0390912B03B4D3AC01909170
:103E00002D039115A1F1809123018417150608F463
:103E10003BC08C819D81892B89F0809128039091F2
:103E20002903A0D3AC0190912C03911509F45AC039
:103E300080911F018417150608F462C0602F7F2D42
:103E40008FE293E0BFD2811104C08FE293E09DDF47
:103E5000811175DF85E0E02FFF2DAFE2B3E0019027
:103E60000D928A95E1F72596E5E00C94492C209176
:103E700027038AE0289F900111242417350748F66C
:103E80009F5F90932D0302C09F3FD1F71A811115B8
:103E900051F027DE91E011160CF09FEF899F802DE5
:103EA0001124809330031B81111551F01ADE91E02B
:103EB00011160CF09FEF899F802D11248093310300
:103EC00080913003811509F4A4CF109131031115AD
:103ED00009F49FCFF8DD80933003812FF4DD8093C8
:103EE000310397CF209120018AE0289F900111246F
:103EF0002417350708F0A2CF9F5F90932C0302C0D0
:103F00009F3FD1F71C81111551F02CDE91E0111665
:103F10000CF09FEF899F802D1124809332038D81B7
:103F2000182F811551F01EDE91E011160CF09FEF55
:103F3000899F802D11248093330380913203811552
:103F400009F47CCF90913303192F911509F476CFA2
:103F5000BADD80933203812FB6DD809333036ECFB9
:103F60000F931F93CF93DF93C42FD22FFC01858132
:103F70008115C9F04093360364D380933403909342
:103F800035038C2F805E883048F481E0C1FD84E0E9
:103F9000C0FD880FC2FD82950E94C109DF91CF91BB
:103FA0001F910F91089510913603141333C080911F
:103FB000340390913503D6D2883C910558F5CD2F26
:103FC000C05E1D17C1F0812F805E883048F481E00B
:103FD00011FD84E010FD880F12FD82950E94C60934
:103FE000C83048F481E0D1FD84E0D0FD880FD2FDD7
:103FF00082950E94C109802F0E94BA0981E0D1FDFB
:1040000084E0D0FD880FD2FD8295C83038F60E943A
:10401000C609C4CF8C2F805E883008F0BFCF81E006
:10402000C1FD84E0C0FD880FC2FD8295F0CF0F93E3
:10403000FC01CB01E851FC47E730F10588F5EC586D
:10404000F24D0C940A2C06E221EE41EE6AE17CE787
:1040500087DF80E00F91089507E225EE45EE6BE1E2
:104060007CE7F6CF06E221EE40EE68E17CE7F0CF98
:1040700007E225EE44EE69E17CE7EACF06E221EEB5
:1040800042EE6CE17CE7E4CF07E225EE46EE6DE11F
:104090007CE7DECF08E221E045EE6EE17CE7D8CF99
:1040A000FB01858181111092360381E0D3CF80938B
:1040B0003B0390933C03089508950895E8D1982F09
:1040C00081E0913009F080E00895E0913B03F091A8
:1040D0003C03309739F00190F081E02D309711F0DA
:1040E0000995089580E00895F0CF0895E0913B038D
:1040F000F0913C03309731F00280F381E02D30974E
:1041000009F009950895E0913B03F0913C03309745
:1041100059F024813581232B39F026E0DC012C93E2
:104120000480F581E02D09950895E0913B03F0911D
:104130003C03309731F00680F781E02D309709F08D
:1041400009950895A3E0B0E0E8EAF0E20C94302C81
:104150002091390330913A0328173907B1F0809341
:10416000390390933A03E0913B03F0913C0330977D
:1041700061F00084F185E02D309739F023E0298348
:104180008A839B83CE01019609952396E2E00C94E5
:104190004C2CA3E0B0E0EFECF0E20C94302C20913A
:1041A00037033091380328173907B1F0809337036C
:1041B00090933803E0913B03F0913C03309761F01A
:1041C0000084F185E02D309739F024E029838A833B
:1041D0009B83CE01019609952396E2E00C944C2C2A
:1041E000CF93DF93C0910801D091090167DF81155A
:1041F00021F08091A20387FD11C09E012E5F3F4FE9
:1042000096E080E09150F90140812F5F3F4F4111CE
:104210008F5F9111F7CFDF91CF9108952091060123
:10422000309107012E5F3F4F9EE1EBCFCF93C82F18
:10423000811102C080E02EC041DF811521F0809104
:10424000A20387FD0FC08091080190910901FC0134
:104250003296089620812C17F9F03196E817F90765
:10426000C9F7E8CF8C2F869586958695C03F10F7C5
:10427000E0910601F0910701E80FF11D228130E085
:10428000C77081E001C0880FCA95EAF7282381E052
:10429000232B81F2CF91089581E0FCCF9C01FC019A
:1042A000329680E09FEF4081461759F031969F3F4C
:1042B00019F4411101C0982F8F5F8630A1F79F3FFD
:1042C00009F40895290F311D97FD3A95F90162838C
:1042D0000895FC01329608962191261302C0DF0151
:1042E0001E92E817F907C1F70895262F26952695FF
:1042F0002695603F60F4820F911DFC01677021E0FC
:1043000001C0220F6A95EAF78281822B8283089589
:10431000262F269526952695603F68F4820F911DDD
:10432000FC019DEF61FD97EF60FF959562FD929511
:104330008281892382830895CF93C82FBFDE6C2F9B
:10434000811559F08091A20387FF07C08091060173
:1043500090910701CADFCF91089580910801909153
:1043600009019CDFF8CFCF93C82FA8DE6C2F8115F1
:1043700059F08091A20387FF07C0809106019091B8
:104380000701C6DFCF91089580910801909109013E
:10439000A0DFF8CF93DE811571F08091A20387FF33
:1043A0000AC0E0910601F091070132968EE1119268
:1043B0008A95E9F70895E0910801F0910901329694
:1043C00086E0F5CFDC01FB019C918081981322C02F
:1043D00011968C911197811519F0918189131AC04A
:1043E00012968C911297811519F09281891312C03F
:1043F00014968C911497811519F0948189130AC031
:1044000013969C91911521F081E02381291303C01B
:1044100080E001C081E0817008950895FECF089585
:104420008F5F809327016091240170912501809115
:10443000260190912701F2CF83E0809327016091BC
:104440002401709125018091260190912701E6CFEA
:10445000E7CF089581E08093270160912401709156
:1044600025018091260190912701D8CFF3CF08959F
:1044700091E0811101C090E09093260160912401A8
:10448000709125018091260190912701C7CF8091DD
:1044900026010895809325016091240170912501E2
:1044A0008091260190912701B9CF8091250108952F
:1044B000809324016091240170912501809126014F
:1044C00090912701ABCF809124010895089508951C
:1044D000FECF08950895FACF08950F931F93CF93B9
:1044E000DF930E941B060E941215F4DF0DE313E018
:1044F000C0E0D0E08C2F0E94FA14F80181938F0164
:1045000091E0811101C090E0D92BCF5FCE3091F7BF
:104510008D2FDF91CF911F910F910895E82FF0E03B
:10452000E35CFC4F808190E021E030E002C0220F8C
:10453000331F6A95E2F72823392381E0232B09F4FE
:1045400080E0089541110DC0E82FF0E0E35CFC4FDE
:1045500021E001C0220F6A95EAF720958081282387
:1045600020830895CF93DF93EC016BD08C1B9D0BC0
:10457000DF91CF91089585B7806885BF85B7806842
:1045800085BF08951F921FB61F9211248F939F938A
:10459000AF93BF9380914B03811113C080910404AA
:1045A00090910504A0910604B09107044196A11DC5
:1045B000B11D8093040490930504A0930604B09366
:1045C0000704BF91AF919F918F911F901FBE1F90C5
:1045D000189580910C04843031F10E94510810929A
:1045E0004B0388E190E020E40FB6F894A8958093FF
:1045F00060000FBE2093600083B7817F846083BF1B
:1046000083B7816083BF7894889583B78E7F83BF9B
:104610000FB6F894A895809160008861809360003F
:10462000109260000FBE08950E94D10B0C945708A1
:1046300082E084BD93E095BD9AEF97BD80936E00B4
:1046400008952FB7F8948091040490910504A091E7
:104650000604B09107042FBF08952FB7F894609116
:1046600004047091050480910604909107042FBF03
:10467000089578941F921FB61F9211248F939F93D1
:10468000AF93BF938091040490910504A091060418
:10469000B09107040196A11DB11D8093040490936D
:1046A0000504A0930604B0930704BF91AF919F91B6
:1046B0008F911F901FBE1F901895F89481E08093F2
:1046C000E00080E28093D800E9ECF0E010828FE116
:1046D0009EE40197F1F700C000001DBA1092680037
:1046E0001CBC10BE1FBA10927A0010926E0010927D
:1046F0006F0010927100109272001082ECEB108229
:1047000014B817B81AB81DB810BA108215B818B86E
:104710001BB81EB811BA0C94003F089588E19AE0C6
:104720000FB6F894A895809360000FBE9093600038
:10473000FFCFEF92FF921F93CF93DF93182FEB01E0
:104740001092BC0084EA8093BC007BDF7C018091E6
:10475000BC0087FF25C08091B900887F883029F090
:104760008091B900887F803171F51093BB0084E897
:104770008093BC0066DF7C018091BC0087FF1DC078
:104780002091B900287F80E090E0283181F081E01D
:1047900090E0203409F480E091958195910907C05B
:1047A000C701E0DEC817D90790F68EEF9FEFDF91C3
:1047B000CF911F91FF90EF900895C701D3DEC817E6
:1047C000D907D0F6F2CF8FEF9FEFF1CF1092B9005B
:1047D0008CE08093B80008950F931F93CF93DF93DD
:1047E000EB018093BB0084E88093BC002ADF8C013E
:1047F0008091BC0087FF10C02091B900287F81E024
:1048000090E0283209F480E0919581959109DF913B
:10481000CF911F910F910895CF3FDC0749F3C80155
:10482000A1DEC817D90720F78EEF9FEFF0CF0F93C7
:104830001F93CF93DF93EC0184EC8093BC0001DFE6
:104840008C018091BC0087FF08C08091BB0090E084
:10485000DF91CF911F910F910895CF3FDC0789F32E
:10486000C80180DEC817D90760F78EEF9FEFF0CF41
:104870000F931F93CF93DF93EC0184E88093BC00E8
:10488000E0DE8C018091BC0087FF08C08091BB00F6
:1048900090E0DF91CF911F910F910895CF3FDC07FA
:1048A00089F3C8015FDEC817D90760F78EEF9FEF65
:1048B000F0CFA0E0B0E0EEE5F4E2C7C7982E862E78
:1048C000772E6A017901BDDE5C0184E1E816F1040E
:1048D00010F18FEFE816FE0409F1C70164E170E002
:1048E00050D7162F072F612F702F892D22DFEC0153
:1048F000892BB1F4082D172DC00ED11E0C151D05E6
:1049000011F02097B9F084E98093BC00CE01CDB7B7
:10491000DEB7EDE0B6C711E000E0E5CF15E0FCCF73
:104920008FEFE816FE04F9F2C5011CDEE816F90661
:10493000D0F6E0CFB701F80181918F014DDFEC0196
:10494000DDCF6F927F929F92AF92BF92CF92DF9214
:10495000EF92FF920F931F93CF93DF937B015A0146
:1049600089018160982E6DDE3C010431110578F1DA
:104970000F3F100781F1C80164E170E002D76B01BD
:10498000B601892DD6DEEC01892B41F5C12CD12C45
:1049900081E0A81AB108CA14DB04B0F5D7FF27C01C
:1049A00084E98093BC00CE011C161D0614F480E03F
:1049B00090E0DF91CF911F910F91FF90EF90DF90EA
:1049C000CF90BF90AF909F907F906F900895CC2430
:1049D000C394D12CD5CF85E0C82EFBCF0F3F100755
:1049E00079F2C301BFDD0817190750F6CFCFC80110
:1049F0001EDFEC0197FD04C0F701EC0DFD1D808367
:104A00008FEFC81AD80AC7CFD7FDCACFC80130DF89
:104A1000EC0197FD05C0EA0CFB1CF7018083C0CFB9
:104A2000CEEFDFEFBDCFA0E0B0E0E8E1F5E20CC7EC
:104A3000982E862E742E652E6901E80102DE5C0137
:104A40000431110500F10F3F100709F1C80164E1BD
:104A500070E097D6F62EE72E6F2D7E2D892D69DE1C
:104A60008C01892BB9F0CF3FDC07B1F3C5017ADDAA
:104A7000C817D90788F784E98093BC00C801CDB76F
:104A8000DEB7EEE0FDC6FF24F394E12CE5CF85E030
:104A9000F82EFBCFBE01882D9FDE8C01E72CF62C73
:104AA000CE0CDF1CEC14FD0431F30115110519F7D0
:104AB000BE01F70181917F018FDE8C01F3CF9B0155
:104AC000BA0190910C049430D9F48F708093E9006E
:104AD0009FEF8091E80085FD06C085ED8A95F1F78E
:104AE00000009150B1F78091E80085FF09C040E0D7
:104AF00050E0C901BDD18091E8008E778093E80035
:104B0000089543E050E0BC0183E0D9CF45E050E098
:104B1000BC0182E0D4CF40E250E0BC0183E0CFCFC3
:104B2000CF93DF93EC01B3DC48E050E0BE0181E0BD
:104B3000C6DF88E0FE01ACE4B3E001900D928A95F7
:104B4000E1F7DF91CF91089580910B04811107C0A7
:104B50001DD36DD38091E20084608093E2000895BC
:104B600010920B04089576DC81E082CC60910804F9
:104B700081E0611101C080E05FCC90910C0481E084
:104B8000943009F080E06091080462CC42E061EC6E
:104B900081E078D242E161EC82E074D242E261ECE1
:104BA00083E070D290910C0481E0943009F080E0B1
:104BB0006091080435CC80910E04893081F148F46D
:104BC000823009F497C0833009F458C0813041F035
:104BD00008958A3009F481C08B3009F469C00895C2
:104BE00080910D04813A09F048C08091E800877FE8
:104BF0008093E8008091110490911204892B59F060
:104C000060E080E090E070E080D18091E8008B77F8
:104C10008093E800089568E08CE493E0F4CF8091FD
:104C20000D04813251F580911104909112048D7F11
:104C3000892B19F58091E800877F8093E8008091A7
:104C4000E80082FF16C02091F3008091F200922FBD
:104C5000029731F48091F100813011F0863019F41F
:104C60008091F10017DC8091E8008B778093E80059
:104C70003DC280910C048111E2CF089580910D0412
:104C8000813AD9F78091110490911204892BA9F7E8
:104C90008091E800877F8093E8008091E80080FFA2
:104CA000FCCFF5DB8093F1008091E8008E77DECFBA
:104CB00080910D04813209F78091110490911204C2
:104CC000892BD9F68091E800877F8093E8000ED287
:104CD00080910F04CDDB0C94D10B80910D048132B7
:104CE00061F68091E800877F8093E800FFD1809192
:104CF0001004DECB80910D04813A09F0BECF809183
:104D0000E800877F8093E8008091E80080FFFCCF77
:104D1000DADBC8CF84B7877F84BF0FB6F894A89535
:104D200080916000886180936000109260000FBEE7
:104D300080E890E00FB6F894809361009093610052
:104D40000FBE94CB23D273D2E2EEF0E08081846078
:104D500080837894CFC488E291E0A9C980910C0443
:104D6000853029F480910C04853011F05DCC0895D4
:104D700030DCB3DB8115B1F380910A04811591F326
:104D800061D00E94D10BEECF08959A014091130497
:104D90005091140400C0492F50E043305105D1F028
:104DA00078F44130510509F448C04230510571F49E
:104DB00084E590E040E059E0F90140835183089593
:104DC00041325105E9F04232510539F180E090E07D
:104DD00040E0F2CF482F50E0813061F04230510581
:104DE00061F0ECEFF8E04115510581F7849190E016
:104DF000AF01E2CFE2EDF8E0F9CFEEEAF8E0F6CF6E
:104E00006330710518F7660F771FFB01E652FE4FFE
:104E10004081518189E090E0CFCF63307105B0F6D9
:104E2000FB01EE0FFF1FEC52FE4F408151816F528C
:104E30007E4FFB01808190E0BFCF82E190E044E5AE
:104E400059E0BACF80E189BD82E189BD09B400FE95
:104E5000FDCF8091D8008F7D8093D8008091E000B5
:104E600082608093E0008091E00081FDFCCF089596
:104E7000AF92BF92CF92DF92FF920F931F93CF9387
:104E8000DF936C01EB018A0150D1F82E811123C010
:104E90000115110539F0F80180819181C81BD90BEA
:104EA000C80ED91EA12CB12C2097A9F08091E80042
:104EB00085FD21C08091E8008E778093E800011580
:104EC0001105A1F0F801808191818A0D9B1D8083DD
:104ED000918385E0F82E8F2DDF91CF911F910F9157
:104EE000FF90DF90CF90BF90AF9008951ED18115B5
:104EF000E9F2F82EF0CFF60181916F018093F10075
:104F000021978FEFA81AB80ACFCFFC012091130484
:104F1000309114042617370720F06115710569F0E8
:104F20009B0190E02115310571F491110CC0809125
:104F3000E80082FF38C080E008959091E8009E77F5
:104F40009093E800EDCF80910C048115C1F185307C
:104F5000C1F18091E80083FD30C08091E80082FDBE
:104F6000E6CF8091E80080FFDDCF8091F300409193
:104F7000F200582F2115310519F04830510558F02D
:104F800091E04830510509F090E04091E8004E77FB
:104F90004093E800C7CF81918093F10021503109FF
:104FA0004F5F5F4FE7CF80910C04811541F0853052
:104FB00041F08091E80083FFBACF81E0089582E05C
:104FC000089583E00895FC012091130430911404A6
:104FD0002617370720F06115710569F09B0190E0F5
:104FE0002115310571F491110CC08091E80082FF08
:104FF00039C080E008958091E8008E778093E800C2
:10500000EDCF80910C048115C9F18530C9F18091F3
:10501000E80083FD31C08091E80082FDE6CF8091F9
:10502000E80080FFDDCF8091F3004091F200582F1F
:105030002115310519F04830510558F091E04830FC
:10504000510509F090E08091E8008E778093E800A8
:10505000C7CF84918093F1003196215031094F5F81
:105060005F4FE6CF80910C04811541F0853041F00F
:105070008091E80083FFB9CF81E0089582E0089530
:1050800083E00895982F973028F08F708093E9007F
:1050900081E008959093E900242F762F50E098172F
:1050A00031F07091EC002091ED005091F00021FD65
:1050B00002C09F5FE8CF3091EB003E7F3093EB0062
:1050C0003091ED003D7F3093ED003091EB00316089
:1050D0003093EB007093EC002093ED005093F000C0
:1050E0002091EE0027FDE5CF80E0089580910D042A
:1050F00087FF13C08091E80082FF06C08091E8001E
:105100008B778093E800089580910C048111F2CF91
:10511000089580910C048115D9F38091E80080FFF7
:10512000F8CF8091E8008E77ECCF2091E4003091A9
:10513000E50095E6A9012091EC00822F817020FF07
:1051400006C08091E80080FF06C080E008952091AD
:10515000E80022FD1AC080910C04811589F0853089
:1051600089F08091EB0085FD0FC02091E400309123
:10517000E50042175307F9F29150E1F684E00895F3
:1051800082E0089583E0089581E008955FD066D0BD
:10519000E0EEF0E0808181608083E8ED80818F77B0
:1051A000808319BCA7EDB0E08C918E7F8C938081B9
:1051B0008F7E808310920B040895CF93DF9346D0A7
:1051C0004DD0C8EDD0E088818F7788838881806852
:1051D000888388818F7D888319BC10920C0410927B
:1051E000080410920A0410920904E0EEF0E08081B5
:1051F0008B7F808388818160888342E060E080E0EB
:1052000041DFE1EEF0E080818E7F8083E2EE8081FD
:1052100081608083808188608083E0EE80818E7FE2
:105220008083888180618883DF91CF910895E8ED44
:10523000F0E080818F7E8083E7ED808181608083D4
:1052400084E082BF81E080930B04B7CFE8EDF0E00B
:1052500080818E7F80831092E20008951092DA00A0
:105260001092E10008951F920F920FB60F92112431
:105270002F933F934F935F936F937F938F939F935E
:10528000AF93BF93EF93FF938091E10082FF0AC039
:105290008091E20082FF06C08091E1008B7F8093C5
:1052A000E10027D28091DA0080FF18C08091D800F9
:1052B00080FF14C08091DA008E7F8093DA008091A5
:1052C000D90080FF8FC080E189BD82E189BD09B42A
:1052D00000FEFDCF81E080930C0436DC8091E1007C
:1052E00080FF18C08091E20080FF14C08091E2002E
:1052F0008E7F8093E2008091E20080618093E200E3
:105300008091D80080628093D80019BC85E080939A
:105310000C042CDC8091E10084FF28C08091E20025
:1053200084FF24C080E189BD82E189BD09B400FE0B
:10533000FDCF8091D8008F7D8093D8008091E100CF
:105340008F7E8093E1008091E2008F7E8093E20067
:105350008091E20081608093E200809108048115D1
:1053600009F445C084E080930C0407DC8091E100DF
:1053700083FF27C08091E20083FF23C08091E1007A
:10538000877F8093E10082E080930C0410920804F0
:105390008091E1008E7F8093E1008091E2008E7F1A
:1053A0008093E2008091E20080618093E20042E01D
:1053B00060E080E067DE8091F00088608093F0001C
:1053C000D2DBFF91EF91BF91AF919F918F917F9130
:1053D0006F915F914F913F912F910F900FBE0F9062
:1053E0001F90189519BC10920C04BADB77CF8091EE
:1053F000E30087FF02C083E0B6CF81E0B4CF1F9205
:105400000F920FB60F9211241F932F933F934F9338
:105410005F936F937F938F939F93AF93BF93CF933C
:10542000DF93EF93FF93E9EEF0E080811091EC00C1
:105430008F7010FB112717F9182B1082C0EFD0E0E6
:105440008881877F888378941CD0E9EEF0E0108211
:105450008881886088831F701083FF91EF91DF91AE
:10546000CF91BF91AF919F918F917F916F915F91FC
:105470004F913F912F911F910F900FBE0F901F9052
:105480001895AAE2B0E0E6E4FAE2E9C18DE094E022
:10549000FC0101962091F100208324E085319207E0
:1054A000B9F789DB8091E80083FF37C080910D0454
:1054B00090910E049A3088F5E92FF0E0E558F24D0E
:1054C000A9C1803889F0823841F5809111048F702C
:1054D000873018F58093E9008091EB0085FB8827E1
:1054E00080F91092E90006C080910A04880F90911B
:1054F0000904892B9091E800977F9093E8008093AE
:10550000F1001092F1008091E8008E7722C08111A5
:1055100015C080910F04813001F18091E80083FF74
:105520000AC08091E800877F8093E8008091EB00BB
:1055300080628093EB00AA96E3E0ADC1823069F708
:1055400080910F04811579F01092E9008091E800B4
:10555000877F8093E800CADDE0CF933009F080E0D8
:1055600080930A04F1CF809111048F70282F21506D
:10557000263098F68093E9002091EB0020FFE4CFDD
:10558000933031F48091EB0080628093EB00DCCFAC
:105590009091EB0090619093EB0021E001C0220F0D
:1055A0008A95EAF72093EA001092EA008091EB00D6
:1055B0008860EBCF8111B1CF80910F048F77182FC6
:1055C0008091E3008078812B8093E3008091E80054
:1055D000877F8093E8008ADD8091E80080FFFCCF20
:1055E0008091E30080688093E30083E0111101C0A3
:1055F00082E080930C0491CF8058823008F08DCFE8
:1056000080910F04909110048C3D23E0920789F55E
:1056100083E08A838AE289834FB7F894DE01139688
:1056200020E03EE051E2E32FF0E0509357008491F8
:1056300020FF03C082958F703F5F8F708A30B8F073
:10564000895C8D931D922F5F243169F74FBF809144
:10565000E800877F8093E8006AE270E0CE0101965F
:1056600054DC8091E8008B778093E80056CF805D12
:10567000E8CF6091110470911204AE014F5F5F4F4B
:1056800084DBBC01892B09F448CF9091E800977F17
:105690009093E80089819A8196DCE3CF803809F005
:1056A0003CCF8091E800877F8093E80080910804D8
:1056B0008093F10028CF811130CF90910F04923068
:1056C00008F02BCF8091E800877F8093E8009093CB
:1056D00008040CDD80910804811529F084E0809392
:1056E0000C0454DA1ACF8091E30087FDF7CF81E0F4
:1056F000F6CF0895CF9380910C04811591F080919D
:10570000E900C091EC008F70C0FBCC27C7F9C82B13
:105710001092E9008091E80083FDB3DECF70C09362
:10572000E900CF91089505D0332312F48A1B9B0B17
:1057300078C0A29FB001B39FC001A39F700D811DCF
:105740001124911DB29F700D811D1124911D08958A
:10575000992778E0880F991F961708F0961B881FE5
:105760007A95C9F78095089587FB082E062687FD50
:10577000819567FD6195ECDF0EF4919507FC8195AD
:105780000895AA1BBB1B51E107C0AA1FBB1FA61788
:10579000B70710F0A61BB70B881F991F5A95A9F7DA
:1057A00080959095BC01CD01089597FB072E16F4C6
:1057B000009406D077FD08D0E4DF07FC05D03EF466
:1057C000909581959F4F0895709561957F4F0895AD
:1057D000A1E21A2EAA1BBB1BFD010DC0AA1FBB1FF5
:1057E000EE1FFF1FA217B307E407F50720F0A21B67
:1057F000B30BE40BF50B661F771F881F991F1A94D4
:1058000069F760957095809590959B01AC01BD01FD
:10581000CF010895EE0FFF1F0590F491E02D09943C
:1058200088DFB7FF0895821B930B089582DFA59F41
:10583000900DB49F900DA49F800D911D112408958B
:105840002F923F924F925F926F927F928F929F9290
:10585000AF92BF92CF92DF92EF92FF920F931F937E
:10586000CF93DF93CDB7DEB7CA1BDB0B0FB6F8942F
:10587000DEBF0FBECDBF09942A88398848885F846F
:105880006E847D848C849B84AA84B984C884DF80E0
:10589000EE80FD800C811B81AA81B981CE0FD11DC4
:1058A0000FB6F894DEBF0FBECDBFED010895AAE09C
:1058B000B0E0ECE5FCE2D4CF89879A87FC016081F7
:1058C00071818281938100977040604021F464E28D
:1058D00079ED8BE597E02DE133EF41E050E094D096
:1058E00029833A834B835C839B01AC01A7EAB1E433
:1058F0009DDF6D837E838F839887ACEEB4EF298123
:105900003A814B815C819ED02D813E814F815885AB
:10591000260F371F481F591FC901DA01B7FF03C0FF
:105920000197A109B048E985FA8580839183A28314
:10593000B3839F772A96E2E0AFCFB9CF80E091E0C2
:10594000B6CF809300019093010110920201109252
:1059500003010895FC014150504030F001900616BB
:10596000D1F73197CF010895882799270895FB0132
:10597000DC0104C08D910190801921F44150504008
:10598000C8F7881B990B0895F999FECF92BD81BD88
:10599000F89A992780B50895A6E1B0E044E050E078
:1059A00025C0A8E1B0E042E050E020C0262FF999E0
:1059B000FECF92BD81BDF89A019700B4021639F06E
:1059C0001FBA20BD0FB6F894FA9AF99A0FBE08953F
:1059D0000396272FECDFEADF252FE9DF242FE7CF1F
:1059E0000196272FE4DFE2CFDC01CB01FC01F9991E
:1059F000FECF06C0F2BDE1BDF89A319600B40D921B
:105A000041505040B8F70895052E97FB16F40094C6
:105A10000FD057FD05D0DCDE07FC02D046F408C0ED
:105A200050954095309521953F4F4F4F5F4F0895CA
:105A300090958095709561957F4F8F4F9F4F0895FA
:105A4000B7FFF4CEF3DE821B930B0895F894FFCFDB
:105A5000060A060A3D0A3D0A930AAF0A2E0A2E0AD2
:105A6000B30A250B320B320BD415D715DB15DF1516
:105A7000E315E715EB15EF15F315F715FB15E41C0A
:105A8000531DEC1CB61CBA1CF01CBE1CF41C001DE3
:105A9000CA1C4C1DCE1C041DD21C081D2D1DD61C5D
:105AA0000C1D341DDC1C121D1A1DC21CF81CC61C4A
:105AB000FC1CE01C161D241D3D1D4A1DB01CE81CCD
:105AC0005A1DF31DF81DFA1DFF1D0F1E0F1E0F1E80
:105AD0000F1E0F1E0F1E0F1E0F1E011E051E081E7D
